:100000000C942A000C9447000C9447000C94470071
:100010000C9447000C9447000C9447000C94470044
:100020000C9447000C9447000C9447000C94470034
:100030000C9447000C9447000C9447000C94470024
:100040000C9447000C9447000C9447000C94470014
:100050000C94470011241FBECFE5D8E0DEBFCDBF12
:1000600010E0A0E6B0E0EAE4F5E002C005900D92F1
:10007000AA36B107D9F720E0AAE6B0E001C01D9288
:10008000AB36B207E1F70E9449000C94A3020C942E
:100090000000CF93DF93CDB7DEB72A970FB6F89461
:1000A000DEBF0FBECDBF198289E0E1E6F0E0DE01E0
:1000B000129601900D928A95E1F780E00E9401016D
:1000C00081E00E940101CE0102960E945A02EE24B4
:1000D000E39400E020E043E060E080E00E94E30180
:1000E000CC24C394E12C20E040E260E480E80E944C
:1000F0009C0184E690E00E940402C12CD12C0F2EBA
:10010000FAE0EF2EF12CF02D81E60E94770280E0DC
:100110000E9421018823D9F383E70E9477020E947D
:10012000DC01898382E70E94770286010BC0CE0141
:1001300001960E94E00184E690E00E940402898119
:10014000080F111D81E00E942101882381F3C8015D
:10015000B7010E947B02862F0E947702D5CF8130A3
:1001600081F028F08230B9F0833041F51EC08AB3A7
:10017000962F909589238ABB8AB36423682B6ABB28
:10018000089587B3962F9095892387BB87B36423FF
:10019000682B67BB089584B3962F9095892384BB01
:1001A00084B36423682B64BB089581B3962F909524
:1001B000892381BB81B36423682B61BB089581309F
:1001C00061F028F0823079F08330C9F412C089B32D
:1001D000682381E0A9F480E0089586B3682381E074
:1001E00079F480E0089583B3682381E049F480E0E6
:1001F000089580B3682381E019F480E0089580E0D9
:100200000895813061F028F0823079F08330C1F4B4
:1002100012C040E060E182E00E94AF00089540E03B
:1002200064E081E00E94AF00089540E064E080E077
:100230000E94AF00089540E068E080E00E94AF00B7
:100240000895CF93C82F62E370E080E090E00E94B1
:100250004801C13059F028F0C23069F0C330A9F428
:100260000FC060E182E00E94DF0010C064E081E026
:100270000E94DF000BC064E080E00E94DF0006C047
:1002800068E080E00E94DF0001C080E0CF91089527
:100290008F929F92AF92BF92EF92FF920F931F9314
:1002A000CF93DF9300D000D0CDB7DEB719821A828A
:1002B0001B821C82611571058105910519F52DC000
:1002C00089809A80AB80BC80AFEF8A1A9A0AAA0A0A
:1002D000BA0A89829A82AB82BC822150310981F7A5
:1002E0004150510911F09F01EBCF0F5F1F4F4801A3
:1002F000AA2497FCA094BA2C86169706A806B906DD
:1003000050F00BC000E010E00F2EF3E1EF2EF12CC7
:10031000F02DE0E1F0E0A701E6CF0F900F900F90F5
:100320000F90DF91CF911F910F91FF90EF90BF90B1
:10033000AF909F908F900895CF92EF920F93CF93AD
:10034000C62F9DB1892B482B422B042BE02ACE28A7
:10035000CDB82031A9F44FEF60E281E00E94AF00F8
:1003600040E060E481E00E94AF004FEF60E881E090
:100370000E94AF004FEF60E181E00E94AF0014C027
:1003800040E060E281E00E94AF004FEF60E481E076
:100390000E94AF0040E060E881E00E94AF0040E0D2
:1003A00060E181E00E94AF008DB1C82BCDB9CF9143
:1003B0000F91EF90CF900895779BFECF8FB1089566
:1003C0008EB181E00895EF920F9393B7982B93BF6E
:1003D00093B7692B63BF93B7942B93BF99B7E92A5F
:1003E000E9BE22BF0CBF4093600080936A000F916A
:1003F000EF90089582BF089593B780916000892B94
:1004000083BF089513BE08958F929F92AF92BF92BB
:10041000CF92DF92EF92FF924C0180916A0081119E
:1004200022C00E94FC01A12CB12C81149104A104D2
:10043000B104B1F0C12CD12C760186E00E94FA0102
:1004400008B600FEFDCF88B7816088BF8FEFC81A5D
:10045000D80AE80AF80AC814D904EA04FB0468F3C5
:100460000E9402021EC089EF8CBF0E94FC01A12CD9
:10047000B12C81149104A104B10489F080E090E0D2
:10048000DC0108B601FEFDCF28B7226028BF019627
:10049000A11DB11D88159905AA05BB0590F30E9401
:1004A0000202FF90EF90DF90CF90BF90AF909F90AF
:1004B0008F900895FC01848180FD599A80FF59989E
:1004C000828180FD539A80FF5398838180FD549AE6
:1004D00080FF549896818781892B80689085892B2D
:1004E0009581892B80BD10BC87E689B908955D9BF5
:1004F000FECF8CB9089597FB072E16F4009407D011
:1005000077FD09D00E948F0207FC05D03EF490953C
:1005100081959F4F0895709561957F4F0895AA1B0F
:10052000BB1B51E107C0AA1FBB1FA617B70710F0DE
:10053000A61BB70B881F991F5A95A9F78095909510
:0A054000BC01CD010895F894FFCF2F
:0A054A0003802501010006000000F7
:00000001FF
