:100000000C942A000C9447000C9447000C94470071
:100010000C9447000C9447000C9447000C94470044
:100020000C9447000C9447000C9447000C94470034
:100030000C9447000C9447000C9447000C94470024
:100040000C9447000C9447000C9447000C94470014
:100050000C94470011241FBECFE5D8E0DEBFCDBF12
:1000600010E0A0E6B0E0E0EDF4E002C005900D92F3
:10007000AA36B107D9F720E0AAE6B0E001C01D9288
:10008000AB36B207E1F70E9449000C9466020C946B
:100090000000CF93DF93CDB7DEB729970FB6F89462
:1000A000DEBF0FBECDBF89E0E1E6F0E0DE011196D4
:1000B00001900D928A95E1F780E00E94EE0081E0C8
:1000C0000E94EE00CE0101960E944502EE24E394C8
:1000D00000E020E043E060E080E00E94CE01CC241C
:1000E000C394E12C20E140E260E480E80E948901B1
:1000F0000E946202182F84E690E00E94EF0180E0E7
:100100000E940E01813041F41A3008F41F5F80E034
:100110000E940E018130D9F381E00E940E018130EE
:1001200039F41111115081E00E940E018130D9F390
:10013000812F0E94CA01DFCF813081F028F0823008
:10014000B9F0833041F51EC08AB3962F909589236C
:100150008ABB8AB36423682B6ABB089587B3962F42
:100160009095892387BB87B36423682B67BB089569
:1001700084B3962F9095892384BB84B36423682B22
:1001800064BB089581B3962F9095892381BB81B379
:100190006423682B61BB0895813061F028F08230C0
:1001A00079F08330C9F412C089B3682381E0A9F4DF
:1001B00080E0089586B3682381E079F480E00895B3
:1001C00083B3682381E049F480E0089580B3682315
:1001D00081E019F480E0089580E00895813061F0B5
:1001E00028F0823079F08330C1F412C040E060E141
:1001F00082E00E949C00089540E064E081E00E945B
:100200009C00089540E064E080E00E949C00089516
:1002100040E068E080E00E949C000895CF93C82FE2
:1002200062E370E080E090E00E943501C13059F057
:1002300028F0C23069F0C330A9F40FC060E182E059
:100240000E94CC0010C064E081E00E94CC000BC092
:1002500064E080E00E94CC0006C068E080E00E947C
:10026000CC0001C080E0CF9108958F929F92AF9211
:10027000BF92EF92FF920F931F93CF93DF9300D023
:1002800000D0CDB7DEB719821A821B821C8261159D
:1002900071058105910519F52DC089809A80AB8083
:1002A000BC80AFEF8A1A9A0AAA0ABA0A89829A828D
:1002B000AB82BC822150310981F74150510911F0C4
:1002C0009F01EBCF0F5F1F4F4801AA2497FCA0941A
:1002D000BA2C86169706A806B90650F00BC000E0A7
:1002E00010E00F2EF3E1EF2EF12CF02DE0E1F0E025
:1002F000A701E6CF0F900F900F900F90DF91CF9155
:100300001F910F91FF90EF90BF90AF909F908F90B3
:100310000895CF92EF920F93CF93C62F9DB1892B63
:10032000482B422B042BE02ACE28CDB81EB8203112
:10033000A9F44FEF60E281E00E949C0040E060E49D
:1003400081E00E949C004FEF60E881E00E949C00E9
:100350004FEF60E181E00E949C0014C040E060E249
:1003600081E00E949C004FEF60E481E00E949C00CD
:1003700040E060E881E00E949C0040E060E181E0B4
:100380000E949C008DB1C82BCDB9CF910F91EF90F9
:10039000CF9008958FB9779BFECF0895EF920F937A
:1003A00093B7982B93BF93B7692B63BF93B7942BE5
:1003B00093BF99B7E92AE9BE22BF0CBF4093600002
:1003C00080936A000F91EF90089582BF089593B7CC
:1003D00080916000892B83BF089513BE08958F928A
:1003E0009F92AF92BF92CF92DF92EF92FF924C0119
:1003F00080916A00811122C00E94E701A12CB12CDA
:1004000081149104A104B104B1F0C12CD12C760166
:1004100086E00E94E50108B600FEFDCF88B7816046
:1004200088BF8FEFC81AD80AE80AF80AC814D90496
:10043000EA04FB0468F30E94ED011EC089EF8CBF43
:100440000E94E701A12CB12C81149104A104B104F4
:1004500089F080E090E0DC0108B601FEFDCF28B70E
:10046000226028BF0196A11DB11D88159905AA0516
:10047000BB0590F30E94ED01FF90EF90DF90CF90CD
:10048000BF90AF909F908F900895FC01848180FD74
:10049000599A80FF5998828180FD539A80FF539822
:1004A000838180FD549A80FF549896818781892B9F
:1004B00080689085892B9581892B80BD10BC87E64B
:1004C00089B908955F9BFECF8CB10895F894FFCF52
:0A04D0000380250101000600000072
:00000001FF
